:020000040800F2
:10000000780600208901000891010008930100088A
:100010009501000897010008990100080000000000
:100020000000000000000000000000009B0100082C
:100030009D010008000000009F010008990D0008C4
:10004000A3010008A3010008A3010008A301000800
:10005000A3010008A301000805040008A30100088B
:10006000A3010008A3010008A3010008A3010008E0
:10007000A3010008A3010008A3010008A3010008D0
:10008000A3010008A3010008A3010008A3010008C0
:10009000A3010008A3010008A3010008A3010008B0
:1000A000A3010008A3010008A3010008A3010008A0
:1000B000A3010008A3010008A3010008A301000890
:1000C000A3010008A3010008A3010008A301000880
:1000D000A3010008A3010008A3010008A301000870
:1000E000A3010008A3010008A301000800F002F822
:1000F00000F03AF80AA090E8000C82448344AAF188
:100100000107DA4501D100F02FF8AFF2090EBAE885
:100110000F0013F0010F18BFFB1A43F0010318473B
:100120004811000068110000103A24BF78C878C157
:10013000FAD8520724BF30C830C144BF04680C60ED
:10014000704700000023002400250026103A28BF35
:1001500078C1FBD8520728BF30C148BF0B60704739
:100160001FB51FBD10B510BD00F031F81146FFF7E7
:10017000F7FF00F07DFE00F04FF803B4FFF7F2FF49
:1001800003BC00F057F800000948804709480047C1
:10019000FEE7FEE7FEE7FEE7FEE7FEE7FEE7FEE737
:1001A000FEE7FEE704480549054A064B7047000094
:1001B0009D0D0008ED000008780000207806002062
:1001C000780200207802002070477047704775461B
:1001D00000F02CF8AE4605006946534620F00700B3
:1001E000854618B020B5FFF7DDFFBDE820404FF091
:1001F00000064FF000074FF000084FF0000BAC4630
:10020000ACE8C009ACE8C009ACE8C009ACE8C0097A
:1002100021F007018D46704710B50446AFF300800A
:100220002046BDE81040FFF7A8BF00000048704717
:100230001000002001491820ABBEFEE72600020096
:100240007047000082B08DF806008DF80510002080
:100250008DF804009DF806000F2805DCFFE79DF8E7
:100260000500032805DBFFE79DF804008DF8070073
:1002700030E09DF8060080088DF803009DF8060028
:1002800000F003008DF806009DF8060081000F20A5
:1002900000FA01F39DF803200821C4F2010151F88E
:1002A0002200984341F822009DF805009DF80620A1
:1002B000920000FA02F39DF8032051F8220018433F
:1002C00041F8220001208DF804009DF804008DF80B
:1002D0000700FFE79DF8070002B0704780B586B0C1
:1002E0000020C4F27A4000F079FC00210DF11702E1
:1002F000084600F063F99DF81700012801D1FFE7D7
:1003000054E00020049001210DF1160200F056F98E
:10031000049803210DF1150200F050F99DF8160024
:1003200018B1FFE700F030FC24E09DF8150038B963
:10033000FFE740F27000C2F200000078B0B1FFE7C2
:10034000032100220392104600F088FA039804214A
:100350000291012200F082FA00F054FD0299039A02
:10036000104600F07BFA00F00FFC02E0FFF70CFFF4
:100370001CE0FFE7012100220192104600F06EFA16
:1003800000F040FD019A0621104600F067FA00F0E7
:100390000FF8019A0321104600F060FA019A042137
:1003A000104600F05BFAFFF7EFFEFFE706B080BDF6
:1003B00080B582B00121009100220192104600F028
:1003C0004DFA019A0221104600F048FA009A01986D
:1003D000032100F043FA009A0198042100F03EFA4C
:1003E000019A0521104600F039FA019A06211046BB
:1003F00000F034FA44F20000C4F29C5000F0EEFB2E
:1004000002B080BD80B540F27400C2F20000006806
:10041000804780BD80B582B000208DF807008DF840
:100420000600FFE79DF806000F2800F3AB80FFE70A
:100430009DF8061040F20000C2F20000405C400946
:10044000C007002878D0FFE79DF80610012000FAC9
:1004500001F240F20041C4F2010108681043086053
:100460009DF8061040F20000C2F20000405CC0F3AC
:10047000C1000146009140B1FFE7009801281CD05F
:10048000FFE70098022830D047E09DF806100120D1
:1004900000FA01F340F20842C4F201021168194364
:1004A00011609DF8061000FA01F240F20C41C4F20E
:1004B00001010868904308602FE09DF806100120B4
:1004C00000FA01F340F20842C4F2010211689943B4
:1004D00011609DF8061000FA01F240F20C41C4F2DE
:1004E000010108681043086017E09DF8061001201C
:1004F00000FA01F340F20842C4F201021168194304
:1005000011609DF8061000FA01F240F20C41C4F2AD
:100510000101086810430860FFE79DF8060040F2FB
:100520000001C2F20001095C01F00701FFF78AFE39
:1005300001208DF807001EE09DF8061040F2000033
:10054000C2F20000405C4009C00778B9FFE79DF89F
:100550000610012000FA01F340F20042C4F2010249
:100560001168994311608DF8070003E000208DF8B1
:100570000700FFE7FFE7FFE79DF8060001308DF871
:1005800006004FE79DF8070002B080BD81B00090E3
:10059000009840F27401C2F20001086001B0704797
:1005A00080B582B08DF807008DF806109DF8070021
:1005B0009DF8061000F0F8F902B080BD84B08DF807
:1005C0000F008DF80E10029200208DF8070002989F
:1005D0000078002846D0FFE79DF80F000146009103
:1005E00040B1FFE70098012815D0FFE700980228E6
:1005F00022D032E040F60800C4F2010001689DF804
:100600000E20012000FA02F31940D140029A117025
:100610008DF8070025E040F60840C4F201000168AB
:100620009DF80E20012000FA02F31940D140029AF1
:1006300011708DF8070014E041F20800C4F20100C7
:1006400001689DF80E20012000FA02F31940D14004
:10065000029A11708DF8070003E000208DF8070062
:10066000FFE703E000208DF80700FFE79DF8070093
:1006700004B0704782B08DF807008DF806108DF831
:10068000052000208DF804009DF807000146009128
:1006900048B1FFE7009801284BD0FFE700980228F7
:1006A00000F08D80D1E09DF8060007281BDCFFE7F5
:1006B0009DF8060081000F2000FA01F240F60001CB
:1006C000C4F201010868904308609DF805009DF898
:1006D0000620920000FA02F2086810430860012028
:1006E0008DF8040024E09DF806000E281BDCFFE7CF
:1006F0009DF8060081000F2000FA01F240F6040187
:10070000C4F201010868904308609DF805009DF857
:100710000620920000FA02F20868104308600120E7
:100720008DF8040003E000208DF80400FFE7FFE7E8
:100730008FE09DF8060007281BDCFFE79DF8060008
:1007400081000F2000FA01F240F60041C4F20101DD
:100750000868904308609DF805009DF80620920007
:1007600000FA02F208681043086001208DF80400C6
:1007700024E09DF806000E281BDCFFE79DF806002C
:1007800081000F2000FA01F240F60441C4F2010199
:100790000868904308609DF805009DF806209200C7
:1007A00000FA02F208681043086001208DF8040086
:1007B00003E000208DF80400FFE7FFE749E09DF823
:1007C000060007281BDCFFE79DF8060081000F20CC
:1007D00000FA01F241F20001C4F2010108689043FD
:1007E00008609DF805009DF80620920000FA02F2CC
:1007F00008681043086001208DF8040024E09DF88B
:1008000006000E281BDCFFE79DF8060081000F2084
:1008100000FA01F241F20401C4F2010108689043B8
:1008200008609DF805009DF80620920000FA02F28B
:1008300008681043086001208DF8040003E00020E0
:100840008DF80400FFE7FFE703E000208DF80400C7
:10085000FFE79DF8040002B07047000082B08DF8F9
:1008600007008DF806108DF8052000208DF8040093
:100870009DF807000146009140B1FFE7009801286C
:1008800033D0FFE7009802285CD088E09DF805008F
:10089000012811D1FFE79DF80610012000FA01F3AD
:1008A00040F60C02C4F201021168194311608DF880
:1008B00004008DF8040017E09DF8050078B9FFE703
:1008C0009DF80610012000FA01F340F60C02C4F274
:1008D00001021168994311608DF8040003E00020C3
:1008E0008DF80400FFE7FFE75AE09DF805000128B6
:1008F0000FD1FFE79DF80610012000FA01F340F642
:100900000C42C4F201021168194311608DF8040011
:1009100017E09DF8050078B9FFE79DF80610012063
:1009200000FA01F340F60C42C4F201021168994347
:1009300011608DF8040003E000208DF80400FFE74B
:10094000FFE72DE09DF8050001280FD1FFE79DF896
:100950000610012000FA01F341F20C02C4F2010278
:100960001168194311608DF8040017E09DF8050027
:1009700078B9FFE79DF80610012000FA01F341F273
:100980000C02C4F201021168994311608DF8040051
:1009900003E000208DF80400FFE7FFE700E0FFE739
:1009A0009DF8040002B0704780B582B08DF8060053
:1009B0008DF805109DF806009DF8051001AAFFF7B7
:1009C000FDFD20B9FFE700208DF8070018E09DF835
:1009D000040001280AD1FFE79DF806009DF80510E4
:1009E0000022FFF73BFF8DF8070009E09DF80600A5
:1009F0009DF805100122FFF731FF8DF80700FFE792
:100A00009DF8070002B080BD81B08DF80300002082
:100A10008DF802009DF803001F280DDCFFE79DF80C
:100A20000310012000FA01F14EF20012CEF2000292
:100A300011608DF802002DE09DF803003F280FDCC7
:100A4000FFE79DF80300A0F12001012000FA01F169
:100A50004EF20412CEF2000211608DF8020018E08E
:100A60009DF803005F280FDCFFE79DF80300A0F16D
:100A70004001012000FA01F14EF20812CEF200020C
:100A800011608DF8020003E000208DF80200FFE7FE
:100A9000FFE7FFE79DF8020001B0704782B08DF8D4
:100AA00007008DF8061000208DF805009DF807005E
:100AB0000146009140B1FFE70098012813D0FFE7FD
:100AC000009802281ED02CE09DF80610012000FAA4
:100AD00001F341F21402C4F20202116819431160D9
:100AE0008DF8050021E09DF80610012000FA01F3C1
:100AF00041F21C02C4F202021168194311608DF820
:100B0000050012E09DF80610012000FA01F341F201
:100B10001802C4F202021168194311608DF8050031
:100B200003E000208DF80500FFE79DF8050002B006
:100B30007047000081B000208DF8030041F20001F1
:100B4000C4F20201086840F480200860086840F49C
:100B500080300860FFE741F20000C4F20200006844
:100B600000F400310020B0EB514F01D1FFE7F2E774
:100B700041F20401C4F20201012008608DF8030073
:100B80009DF8030001B0704780B582B0002001904D
:100B9000012200921146FFF761FE019A02211046E0
:100BA000FFF75CFE019A03211046FFF757FE019AFA
:100BB00004211046FFF752FE019A05211046FFF767
:100BC0004DFE009A01980621FFF748FE44F200000E
:100BD000C4F29C5000F002F802B080BD80B584B031
:100BE0000390002000908DF80B00039800F0CAFAE3
:100BF000009A44F20003C4F28F0300F0C5F900F03C
:100C000095F901909DF8070058BBFFE701984EF257
:100C10001401CEF2000108604EF21001CEF2000184
:100C2000086840F001000860FFE74EF21000CEF2C5
:100C300000000068C003002801D4FFE7F5E74EF28A
:100C40001001CEF20001086820F0010008604EF2A9
:100C50001801CEF200010020086001208DF80B0081
:100C6000FFE79DF80B0004B080BD000080B500F0E8
:100C700001F880BD84B000200390029041F2000191
:100C8000C4F20201086840F480300860FFE741F2D6
:100C90000000C4F20200006800F4003002900398E3
:100CA00001300390FFE702990020019039B9FFE776
:100CB0000398B0F5A06018BF01200190FFE70198EC
:100CC000C0070028E3D1FFE741F20000C4F20200B0
:100CD00000688003002803D5FFE70120029002E0AE
:100CE00000200290FFE70298012851D1FFE742F26D
:100CF0000001C4F20201086840F0100008600868B2
:100D000020F007000860086840F00200086041F227
:100D10000401C4F2020100910868086008680860D4
:100D2000086840F480600860086820F47C1008605F
:100D3000086840F4E810086041F20001C4F20201C2
:100D4000086840F080700860FFE741F20000C4F2DC
:100D5000020000688001002801D4FFE7F5E741F2B6
:100D60000401C4F20201086820F00300086008686A
:100D700040F002000860FFE741F20400C4F2020004
:100D8000006800F00C00082801D0FFE7F4E700E05D
:100D9000FFE704B0704700007047000080B541F2E3
:100DA0000002C4F20202106840F00100106041F23B
:100DB0000401C4F2020108680023CFF6FF031840C3
:100DC000086010684FF6FF73CFF6F66318401060A6
:100DD000106820F480201060086820F4FE0008608D
:100DE00041F20801C4F202014FF41F000860FFF74E
:100DF0003DFF4EF60851CEF200014FF00060086052
:100E000080BD000080B584B040F27001C2F20001E4
:100E10000120087008208DF80F00FFE79DF80F00F3
:100E2000411E8DF80F1078B1FFE7002002900221DB
:100E3000FFF7B6FB02980521FFF7B2FB0020C4F2D2
:100E4000FA30FFF7CBFEE9E70221002201921046BB
:100E5000FFF704FD019A05211046FFF7FFFC0198FA
:100E600040F27001C2F20001087004B080BD0000C1
:100E700080B586B0002004900590FFF75BFE02214C
:100E800002910846FFF70AFE029A04980121FFF733
:100E9000F1FB029A04981146FFF7ECFB029A0498C2
:100EA0000321FFF7E7FB029A04980421FFF7E2FB16
:100EB000029A04980521FFF7DDFB029A04980621A7
:100EC0000391FFF7D7FBFFF7A5FA0398FFF79CFD07
:100ED000049908220846FFF7CDFB04990846FFF75E
:100EE000B1F940F2DD20C0F60000FFF74FFBFFE74D
:100EF000FFF75EFA0321002201921046FFF7AEFCD5
:100F0000019A04211046FFF7A9FCFFF77BFFFFF7CA
:100F10003BFE019A01211046FFF7A0FC019A062131
:100F20001046FFF79BFCFFF76DFFE1E74FEA115317
:100F3000A3F58063D3F11E03A8BFD3F1200C08DB17
:100F40004FF0004242EAC12252EA505232FA03F014
:100F5000704709420BD4102BC4BF0020704703F523
:100F6000787CBCF1FF3F05D04FF0FF3070474FF069
:100F70000000704770B500F0B1F800BF49922480BE
:100F800000207047F0E7000070B5DFF848C11CEAA8
:100F9000111E1EBF1CEA13159EEA0C0F95EA0C0FDA
:100FA00000F06F8081EA03044EEAD47EAE4421EA69
:100FB0004C1123EA4C1341F4801143F48013AEF139
:100FC0007F7EA1FB024CA0FB0365361955EB0C0597
:100FD000A1FB034C4CF10003A0FB021C16EB0C061A
:100FE000654153F10003094218BF46F0010613F4AE
:100FF000007F0BD14FEA03314FEA053041EA15512A
:1010000040EA165034036FF003020AE04FEAC321AE
:101010004FEAC52041EA555140EA5650F4026FF0BC
:10102000020202EB2E4201EB025585EACE710AD094
:101030005FEA440C18BF24F0004450F1000041F175
:10104000000120EAD47040F2FE7C624500D270BDFF
:10105000A84214BF4FF080444FF04044002E08BF18
:101060000024BEF1806FA8BFA1F1C041BDE870406F
:1010700080F2828001F1C04101F000414FF0000098
:1010800070470CEA13159EEA0C0F18BF95EA0C0F77
:1010900006D081EA030E4FF000000EF0004170BD53
:1010A00000F01CF88900013E00F007B800F009B814
:1010B0004FEA430C5FEA5C5C08D081EA030100F070
:1010C0005BB84FEA410C5FEA5C5CF6D102494FF035
:1010D000000070470000FF070000F87F0EF1020ECD
:1010E0002EF0030E5EF8046B364205D4012A43EB62
:1010F000030515F5001F12D8012841EB010C1CF562
:10110000001F0CD80ED14FEAD17C0CEB4C0C0CF12B
:10111000020C15F5001F08BF4CEBD37C04E04FF028
:10112000080C01E04FEAD37C0CEB4C0526FA05F6DF
:1011300006F00706B6F1040C06D20EEB860CBDE8ED
:1011400070404CF0010C6047DFE80CF0090B020224
:101150004FF00041A1F500214FF0000070BD19468D
:101160001046012851EB010418BFD4F5001484BFC8
:10117000002001F0004170BD0808A0F500114FEA01
:101180003101704743004FEAD30C4FEA3C0C434017
:101190001FBF40070CF1605113F0FE4F70471CF069
:1011A000006F03D10CF00041002070470CF00043A9
:1011B00043EA507040EACC0010B500F00EF800BFD2
:1011C000000000924FEA0001FFF7D6BF4FF0004148
:1011D000A1F500214FF0000070470EF1020E2EF035
:1011E000030E5EF8044B244204D44FEA4102B2F1EC
:1011F0007F4F11D84FEA4003B3F17F4F0CD80ED187
:101200004FEAD07C0CEB4C0C0CF1020CB2F17F4F8E
:1012100008BF4CEBD17C04E04FF0080C01E04FEA32
:10122000D17C0CEB4C0324FA03F404F00704B4F172
:10123000040C06D20EEB840CBDE810404CF0010CFF
:101240006047DFE80CF0070802024FF00040A0F50D
:10125000800010BD0846420018BFD2F1807288BFDE
:1012600000F0004010BD00008812000800000020BF
:10127000100000002801000898120008100000204B
:10128000680600004401000820081010101010101B
:081290001010001010101010E6
:040000050800018965
:00000001FF
